:020000040800F2
:1000000018040020BD090008190A0008190A000890
:10001000190A0008190A0008190A0008000000005F
:10002000000000000000000000000000190A0008A5
:10003000190A000800000000190A0008190A00083F
:10004000190A0008190A0008190A0008190A000804
:10005000190A0008190A0008190A0008190A0008F4
:10006000190A0008190A0008190A0008190A0008E4
:10007000190A0008190A0008190A0008190A0008D4
:10008000190A0008190A0008190A0008190A0008C4
:10009000190A0008190A0008190A0008190A0008B4
:1000A000190A0008190A0008190A0008190A0008A4
:1000B000190A0008190A0008190A0008190A000894
:1000C000190A0008190A0008190A0008190A000884
:1000D000190A0008190A0008190A0008190A000874
:1000E000190A0008190A0008190A0008190A000864
:1000F000190A0008190A0008190A0008190A000854
:10010000190A0008190A0008190A0008190A000843
:10011000190A0008190A0008190A0008190A000833
:10012000190A0008190A0008190A0008190A000823
:100130005FF808F180B485B000AF786039600023C3
:10014000FB817B681B88FB817B682E4A934213D01E
:100150007B682D4A93420FD07B68B3F1804F0BD060
:100160007B682A4A934207D07B68294A934203D08E
:100170007B68284A934208D1FB8923F07003FB81F6
:100180003B685A88FB891343FB817B68224A934270
:100190000CD07B68214A934208D0FB8923F440733A
:1001A000FB813B68DA88FB891343FB817B68FA8912
:1001B0001A803B689A887B689A853B681A887B68B6
:1001C0001A857B680F4A93420FD07B680E4A934290
:1001D0000BD07B68124A934207D07B68114A934246
:1001E00003D07B68104A934204D13B681B7A9AB2D1
:1001F0007B681A867B6801229A821437BD465DF8B7
:10020000047B7047002C0140003401400004004092
:1002100000080040000C00400010004000140040A6
:1002200000400140004401400048014080B485B0D6
:1002300000AF7860396000237B810023FB810023BD
:10024000BB817B681B8C9BB223F001039AB27B6855
:100250001A847B681B8CFB817B689B88BB817B68D5
:100260001B8B7B817B8923F070037B817B8923F04F
:1002700003037B813B681A887B8913437B81FB895D
:1002800023F00203FB813B681A89FB891343FB813E
:100290003B685A88FB891343FB817B68244A93425D
:1002A0000FD07B68234A93420BD07B68224A93424B
:1002B00007D07B68214A934203D07B68204A93424F
:1002C00023D1FB8923F00803FB813B685A89FB8912
:1002D0001343FB81FB8923F00403FB813B689A886D
:1002E000FB891343FB81BB8923F48073BB81BB89EA
:1002F00023F40073BB813B689A89BB891343BB819C
:100300003B68DA89BB891343BB817B68BA899A80D1
:100310007B687A891A833B68DA887B689A867B686F
:10032000FA891A841437BD465DF8047B704700BF14
:10033000002C0140003401400040014000440140D5
:100340000048014080B485B000AF78603960002378
:100350007B810023FB810023BB817B681B8C9BB2CC
:1003600023F010039AB27B681A847B681B8CFB8194
:100370007B689B88BB817B681B8B7B817B8923F49B
:10038000E0437B817B8923F440737B813B681B883E
:100390001B029AB27B8913437B81FB8923F02003E4
:1003A000FB813B681B891B019AB2FB891343FB81CC
:1003B0003B685B881B019AB2FB891343FB817B6816
:1003C000224A934203D07B68214A93422BD1FB8976
:1003D00023F08003FB813B685B891B019AB2FB8998
:1003E0001343FB81FB8923F04003FB813B689B881F
:1003F0001B019AB2FB891343FB81BB8923F4806301
:10040000BB81BB8923F40063BB813B689B899B0054
:100410009AB2BB891343BB813B68DB899B009AB2CC
:10042000BB891343BB817B68BA899A807B687A89D0
:100430001A833B68DA887B681A877B68FA891A8492
:100440001437BD465DF8047B704700BF002C0140A7
:100450000034014080B485B000AF7860396000237B
:100460007B810023FB810023BB817B681B8C9BB2BB
:1004700023F480739AB27B681A847B681B8CFB819F
:100480007B689B88BB817B689B8B7B817B8923F00E
:1004900070037B817B8923F003037B813B681A888F
:1004A0007B8913437B81FB8923F40073FB813B68C9
:1004B0001B891B029AB2FB891343FB813B685B8853
:1004C0001B029AB2FB891343FB817B68224A934249
:1004D00003D07B68214A93422BD1FB8923F400632C
:1004E000FB813B685B891B029AB2FB891343FB814A
:1004F000FB8923F48063FB813B689B881B029AB2D3
:10050000FB891343FB81BB8923F48053BB81BB89E7
:1005100023F40053BB813B689B891B019AB2BB89C2
:100520001343BB813B68DB891B019AB2BB89134330
:10053000BB817B68BA899A807B687A899A833B6899
:10054000DA887B689A877B68FA891A841437BD46F3
:100550005DF8047B704700BF002C0140003401406F
:1005600080B485B000AF786039600023BB81002380
:100570007B810023FB817B681B8C9BB223F480531F
:100580009AB27B681A847B681B8C7B817B689B8812
:10059000FB817B689B8BBB81BB8923F4E043BB81E0
:1005A000BB8923F44073BB813B681B881B029AB252
:1005B000BB891343BB817B8923F400537B813B6858
:1005C0001B891B039AB27B8913437B813B685B8841
:1005D0001B039AB27B8913437B817B68124A934247
:1005E00003D07B68114A93420AD1FB8923F48043EC
:1005F000FB813B689B899B019AB2FB891343FB817A
:100600007B68FA899A807B68BA899A833B68DA8822
:100610007B68A3F840207B687A891A841437BD462A
:100620005DF8047B704700BF002C0140003401409E
:1006300080B483B000AF78600B46FB70FB78002B72
:1006400008D07B681B889BB243F001039AB27B6899
:100650001A8007E07B681B889BB223F001039AB2E3
:100660007B681A800C37BD465DF8047B704700BF7D
:1006700080B483B000AF78600B46FB70FB78002B32
:1006800008D07B681B889BB243F080039AB27B68DA
:100690001A8007E07B681B889BB223F080039AB224
:1006A0007B681A800C37BD465DF8047B704700BF3D
:1006B00080B485B000AF78600B467B800023FB815F
:1006C0007B681B8BFB81FB8923F00803FB81FA8984
:1006D0007B881343FB817B68FA891A831437BD46F4
:1006E0005DF8047B704700BF80B485B000AF7860D0
:1006F0000B467B800023FB817B681B8BFB81FB8986
:1007000023F40063FB817B881B029AB2FB891343AD
:10071000FB817B68FA891A831437BD465DF8047B38
:10072000704700BF80B485B000AF78600B467B8017
:100730000023FB817B689B8BFB81FB8923F00803F3
:10074000FB81FA897B881343FB817B68FA899A8352
:100750001437BD465DF8047B704700BF80B485B098
:1007600000AF78600B467B800023FB817B689B8B0E
:10077000FB81FB8923F40063FB817B881B029AB217
:10078000FB891343FB817B68FA899A831437BD4642
:100790005DF8047B704700BF80B483B000AF786021
:1007A0000B467B807B687A889A860C37BD465DF85D
:1007B000047B704780B483B000AF78600B467B80C9
:1007C0007B687A881A870C37BD465DF8047B7047D2
:1007D00080B483B000AF78600B467B807B687A88FA
:1007E0009A870C37BD465DF8047B704780B483B0B0
:1007F00000AF78600B467B807B687A88A3F8402046
:100800000C37BD465DF8047B704700BF80B483B0F1
:1008100000AF78607B689B8C9BB218460C37BD4656
:100820005DF8047B704700BF80B483B000AF786090
:100830000B467B807B88DB439AB27B681A820C373D
:10084000BD465DF8047B704780B500AF154A154B77
:100850001B6843F0010313601249124B5A68124B94
:1008600013404B600F4A0F4B1B6823F0847323F433
:10087000803313600B4A0B4B1B6823F480231360F7
:10088000084A084B5B6823F4FE035360054B4FF4A2
:100890001F029A6000F00CF8044B4FF000629A605F
:1008A00080BD00BF001002400000FFF800ED00E036
:1008B00080B500AF00F002F880BD00BF80B483B007
:1008C00000AF00237B6000233B603A4A394B1B6832
:1008D00043F480331360374B1B6803F400333B60F1
:1008E0007B6801337B603B68002B03D17B68B3F5E9
:1008F000A06FF0D12F4B1B6803F40033002B02D004
:1009000001233B6001E000233B603B68012B4BD19E
:10091000294A294B1B6843F010031360264A264BD3
:100920001B6823F003031360234A234B1B6843F027
:10093000020313601F4A1F4B5B6853601D4A1D4B27
:100940005B6853601B4A1B4B5B6843F480635360D6
:10095000184A184B5B6823F47C135360154A154BF7
:100960005B6843F4E8135360124A124B1B6843F070
:100970008073136000BF0F4B1B6803F00073002BE4
:10098000F9D00C4A0B4B5B6823F003035360094A10
:10099000084B5B6843F00203536000BF054B5B6884
:1009A00003F00C03082BF9D10C37BD465DF8047B2E
:1009B000704700BF001002400020024080B582B0A6
:1009C00000AF104B7B60104B3B6007E03B681A1D8B
:1009D0003A607A68111D796012681A603B680B4AA8
:1009E0009342F3D30A480B494FF000028842B8BF44
:1009F00040F8042BFADBFFF727FF00F041F9083736
:100A0000BD4680BD3012000800000020000000201C
:100A1000000000201800002080B400AFFEE700BFF7
:100A200080B489B000AF786039600023FB61002397
:100A30003B610023BB610023FB6000237B6100233B
:100A4000BB603B68DB7803F00F03FB613B68DB783E
:100A500003F01003002B05D03B689B781A46FB6916
:100A60001343FB613B681B88DBB2002B44D07B68DF
:100A70001B687B610023BB6138E0BB69012202FA7D
:100A800003F3FB603B681B881A46FB6813403B611D
:100A90003A69FB689A4226D1BB699B00FB60FB6800
:100AA0000F2202FA03F3BB60BB68DB437A69134091
:100AB0007B61FB68FA6902FA03F37A6913437B618D
:100AC0003B68DB78282B05D1BB6901229A407B6803
:100AD0005A6108E03B68DB78482B04D1BB690122EE
:100AE0009A407B681A61BB690133BB61BB69072B04
:100AF000C3D97B687A691A603B681B88FF2B4AD987
:100B00007B685B687B610023BB613EE0BB690833A7
:100B10001A4601239340FB603B681B881A46FB681A
:100B200013403B613A69FB689A422BD1BB699B0039
:100B3000FB60FB680F2202FA03F3BB60BB68DB4378
:100B40007A6913407B61FB68FA6902FA03F37A69F8
:100B500013437B613B68DB78282B07D1BB690833E3
:100B60001A46012303FA02F27B685A613B68DB787C
:100B7000482B07D1BB6908331A46012303FA02F256
:100B80007B681A61BB690133BB61BB69072BBDD9A7
:100B90007B687A695A602437BD465DF8047B7047EC
:100BA00080B487B000AF78600B46FB7000233B61D8
:100BB0000023FB6000237B610023BB607B68002B6C
:100BC00003DA2E4BDB697B6102E02C4B5B687B61B7
:100BD0007B6803F470231B0CBB607B689BB23B619A
:100BE0007B6803F44013B3F5401F0AD17B6923F0FF
:100BF00070637B61214A214B5B6823F07063536013
:100C000021E07B6803F48013002B0ED0BB68032225
:100C100002FA03F3FB60FB68DB437A6913407B61F4
:100C20007B6943F070637B610DE07B685B0D1B01AA
:100C30001A463B699340DB437A6913407B617B69C9
:100C400043F070637B61FB78002B08D07B685B0D01
:100C50001B011A463B6993407A6913437B617B68A9
:100C6000002B03DA054A7B69D36102E0034A7B6902
:100C700053601C37BD465DF8047B7047000001409F
:100C800080B500AF00F0BEF800F0E4F8554840F23F
:100C9000DC51FFF781FD534840F2DC51FFF78AFD3C
:100CA00050484FF47A71FFF793FD4E4840F2DC5103
:100CB000FFF79CFD4C48FFF7A9FD03461A464B4B36
:100CC0001A604A4B1A684A4B1B689A4214D2474B27
:100CD0001A68474B1B68D31A03F543435033B3F5E7
:100CE000FA6F1AD9434B1B680133424A13603F4BDA
:100CF0001B683F4A136010E03C4B1A683C4B1B6872
:100D0000D31AB3F5FA6F08D93A4B1B680133394A45
:100D10001360364B1B68364A1360364B1B68092B31
:100D200000D900E0C6E73048FFF770FD03461A46D9
:100D30002E4B1A602D4B1A682D4B1B689A4229D2F4
:100D40002A4B1A682A4B1B68D31A03F543435033C6
:100D5000B3F5FA6F44D9254B1B68254A136000F0A0
:100D600061F9254B1B680133234A1360234B1B6831
:100D70000133224A1360214B1B683B2B30D900F012
:100D8000DBF81E4B00221A601D4B1B6801331C4A06
:100D90001360C8E7154B1A68154B1B68D31AB3F5D7
:100DA000FA6F1DD9114B1B68114A136000F03AF914
:100DB000114B1B680133104A1360104B1B68013341
:100DC0000E4A13600D4B1B683B2B09D900F0B4F899
:100DD0000A4B00221A600A4B1B680133084A136051
:100DE000A1E700BF00080040000400400000002010
:100DF0000400002014000020100000200800002043
:100E00000C00002080B584B000AF0220012100F06A
:100E1000F1F94CF250333B8148F69F43BB800023ED
:100E20007B810023FB803B1D09481946FFF782F9AF
:100E300007480121FFF7F8FC05480121FFF718FCDE
:100E400003480121FFF7F4FB1037BD4680BD00BF0A
:100E50000004004080B588B000AF0420012100F0FC
:100E6000C9F92120012100F0A7F94FF470433B801C
:100E70001823FB700323BB703B462D481946FFF730
:100E8000CFFD4FF480500121FFF78AFE44F6206326
:100E90003B834723BB8200237B830023FB8207F134
:100EA000140324481946FFF745F96023BB8001234A
:100EB000FB8000237B810023BB813B1D1D4819461D
:100EC000FFF7B4F91B480821FFF7F2FB0123FB8071
:100ED00000237B813B1D17481946FFF733FA15485D
:100EE0000821FFF701FC0123FB8000237B813B1DD0
:100EF00010481946FFF7AEFA0E480821FFF712FC1A
:100F00000123FB8000237B813B1D0A481946FFF724
:100F100027FB08480821FFF721FC06480121FFF7BD
:100F2000A7FB04480121FFF783FB2037BD4680BDA6
:100F3000001401400008004080B500AF374B1B682B
:100F40000B2B65D801A252F823F000BF7D0F0008DB
:100F5000890F0008950F0008A10F0008AD0F0008C9
:100F6000B90F0008C50F0008D10F0008DD0F0008F9
:100F7000E90F0008F50F000801100008284840F2AA
:100F80006C71FFF725FC47E0254840F20E61FFF742
:100F90001FFC41E022484FF4E161FFF719FC3BE000
:100FA0001F4840F20E61FFF713FC35E01C4840F289
:100FB0004C41FFF70DFC2FE0194840F20E61FFF79E
:100FC00007FC29E016484FF4E161FFF701FC23E03C
:100FD000134840F20E61FFF7FBFB1DE0104840F2A2
:100FE0004C41FFF7F5FB17E00D4840F20E61FFF7AB
:100FF000EFFB11E00A4840F24C41FFF7E9FB0BE040
:1010000007480021FFF714FB044B00221A6003E09D
:10101000024B00221A6000BF80BD00BF0C00002000
:101020000008004080B500AF614B1B68092B00F23F
:10103000BA8001A252F823F0611000088110000864
:10104000A1100008C1100008E110000801110008FB
:1010500021110008411100086111000881110008E8
:10106000544840F2DC51FFF797FB524840F2DC5104
:10107000FFF7A0FB4F4840F2DC51FFF7B7FB96E0CB
:101080004C4840F26C71FFF787FB4A4840F26C71A4
:10109000FFF790FB474840F26C71FFF7A7FB86E033
:1010A000444840F24C41FFF777FB424840F24C4144
:1010B000FFF780FB3F4840F24C41FFF797FB76E09B
:1010C0003C484FF4AF61FFF767FB3A484FF4AF611C
:1010D000FFF770FB37484FF4AF61FFF787FB66E01F
:1010E00034484FF4C861FFF757FB32484FF4C861EA
:1010F000FFF760FB2F484FF4C861FFF777FB56E01E
:101100002C4840F2DC51FFF747FB2A4840F2DC5103
:10111000FFF750FB274840F2DC51FFF767FB46E042
:1011200024484FF49661FFF737FB22484FF496614D
:10113000FFF740FB1F484FF49661FFF757FB36E07F
:101140001C484FF4E161FFF727FB1A484FF4E161B7
:10115000FFF730FB17484FF4E161FFF747FB26E04C
:1011600014484FF4C861FFF717FB12484FF4C861E9
:10117000FFF720FB0F484FF4C861FFF737FB16E07D
:101180000C484FF4AF61FFF707FB0A484FF4AF611B
:10119000FFF710FB07484FF4AF61FFF727FB044B45
:1011A00000221A6003E0024B00221A6000BF80BDDB
:1011B000100000200008004080B483B000AF7860C9
:1011C0000B46FB70FB78002B06D00949084B9A6947
:1011D0007B6813438B6106E00549054B9A697B6880
:1011E000DB4313408B610C37BD465DF8047B7047D1
:1011F0000010024080B483B000AF78600B46FB70F3
:10120000FB78002B06D00949084BDA697B68134349
:10121000CB6106E00549054BDA697B68DB43134087
:10122000CB610C37BD465DF8047B7047001002406F
:0400000508000000EF
:00000001FF
