:020000040800F2
:1000000020040020BD090008190A0008190A000888
:10001000190A0008190A0008190A0008000000005F
:10002000000000000000000000000000190A0008A5
:10003000190A000800000000190A0008190A00083F
:10004000190A0008190A0008190A0008190A000804
:10005000190A0008190A0008190A0008190A0008F4
:10006000190A0008190A0008190A0008190A0008E4
:10007000190A0008190A0008190A0008190A0008D4
:10008000190A0008190A0008190A0008190A0008C4
:10009000190A0008190A0008190A0008190A0008B4
:1000A000190A0008190A0008190A0008190A0008A4
:1000B000190A0008190A0008190A0008190A000894
:1000C000190A0008190A0008190A0008190A000884
:1000D000190A0008190A0008190A0008190A000874
:1000E000190A0008190A0008190A0008190A000864
:1000F000190A0008190A0008190A0008190A000854
:10010000190A0008190A0008190A0008190A000843
:10011000190A0008190A0008190A0008190A000833
:10012000190A0008190A0008190A0008190A000823
:100130005FF808F180B485B000AF786039600023C3
:10014000FB817B681B88FB817B682E4A934213D01E
:100150007B682D4A93420FD07B68B3F1804F0BD060
:100160007B682A4A934207D07B68294A934203D08E
:100170007B68284A934208D1FB8923F07003FB81F6
:100180003B685A88FB891343FB817B68224A934270
:100190000CD07B68214A934208D0FB8923F440733A
:1001A000FB813B68DA88FB891343FB817B68FA8912
:1001B0001A803B689A887B689A853B681A887B68B6
:1001C0001A857B680F4A93420FD07B680E4A934290
:1001D0000BD07B68124A934207D07B68114A934246
:1001E00003D07B68104A934204D13B681B7A9AB2D1
:1001F0007B681A867B6801229A821437BD465DF8B7
:10020000047B7047002C0140003401400004004092
:1002100000080040000C00400010004000140040A6
:1002200000400140004401400048014080B485B0D6
:1002300000AF7860396000237B810023FB810023BD
:10024000BB817B681B8C9BB223F001039AB27B6855
:100250001A847B681B8CFB817B689B88BB817B68D5
:100260001B8B7B817B8923F070037B817B8923F04F
:1002700003037B813B681A887B8913437B81FB895D
:1002800023F00203FB813B681A89FB891343FB813E
:100290003B685A88FB891343FB817B68244A93425D
:1002A0000FD07B68234A93420BD07B68224A93424B
:1002B00007D07B68214A934203D07B68204A93424F
:1002C00023D1FB8923F00803FB813B685A89FB8912
:1002D0001343FB81FB8923F00403FB813B689A886D
:1002E000FB891343FB81BB8923F48073BB81BB89EA
:1002F00023F40073BB813B689A89BB891343BB819C
:100300003B68DA89BB891343BB817B68BA899A80D1
:100310007B687A891A833B68DA887B689A867B686F
:10032000FA891A841437BD465DF8047B704700BF14
:10033000002C0140003401400040014000440140D5
:100340000048014080B485B000AF78603960002378
:100350007B810023FB810023BB817B681B8C9BB2CC
:1003600023F010039AB27B681A847B681B8CFB8194
:100370007B689B88BB817B681B8B7B817B8923F49B
:10038000E0437B817B8923F440737B813B681B883E
:100390001B029AB27B8913437B81FB8923F02003E4
:1003A000FB813B681B891B019AB2FB891343FB81CC
:1003B0003B685B881B019AB2FB891343FB817B6816
:1003C000224A934203D07B68214A93422BD1FB8976
:1003D00023F08003FB813B685B891B019AB2FB8998
:1003E0001343FB81FB8923F04003FB813B689B881F
:1003F0001B019AB2FB891343FB81BB8923F4806301
:10040000BB81BB8923F40063BB813B689B899B0054
:100410009AB2BB891343BB813B68DB899B009AB2CC
:10042000BB891343BB817B68BA899A807B687A89D0
:100430001A833B68DA887B681A877B68FA891A8492
:100440001437BD465DF8047B704700BF002C0140A7
:100450000034014080B485B000AF7860396000237B
:100460007B810023FB810023BB817B681B8C9BB2BB
:1004700023F480739AB27B681A847B681B8CFB819F
:100480007B689B88BB817B689B8B7B817B8923F00E
:1004900070037B817B8923F003037B813B681A888F
:1004A0007B8913437B81FB8923F40073FB813B68C9
:1004B0001B891B029AB2FB891343FB813B685B8853
:1004C0001B029AB2FB891343FB817B68224A934249
:1004D00003D07B68214A93422BD1FB8923F400632C
:1004E000FB813B685B891B029AB2FB891343FB814A
:1004F000FB8923F48063FB813B689B881B029AB2D3
:10050000FB891343FB81BB8923F48053BB81BB89E7
:1005100023F40053BB813B689B891B019AB2BB89C2
:100520001343BB813B68DB891B019AB2BB89134330
:10053000BB817B68BA899A807B687A899A833B6899
:10054000DA887B689A877B68FA891A841437BD46F3
:100550005DF8047B704700BF002C0140003401406F
:1005600080B485B000AF786039600023BB81002380
:100570007B810023FB817B681B8C9BB223F480531F
:100580009AB27B681A847B681B8C7B817B689B8812
:10059000FB817B689B8BBB81BB8923F4E043BB81E0
:1005A000BB8923F44073BB813B681B881B029AB252
:1005B000BB891343BB817B8923F400537B813B6858
:1005C0001B891B039AB27B8913437B813B685B8841
:1005D0001B039AB27B8913437B817B68124A934247
:1005E00003D07B68114A93420AD1FB8923F48043EC
:1005F000FB813B689B899B019AB2FB891343FB817A
:100600007B68FA899A807B68BA899A833B68DA8822
:100610007B68A3F840207B687A891A841437BD462A
:100620005DF8047B704700BF002C0140003401409E
:1006300080B483B000AF78600B46FB70FB78002B72
:1006400008D07B681B889BB243F001039AB27B6899
:100650001A8007E07B681B889BB223F001039AB2E3
:100660007B681A800C37BD465DF8047B704700BF7D
:1006700080B483B000AF78600B46FB70FB78002B32
:1006800008D07B681B889BB243F080039AB27B68DA
:100690001A8007E07B681B889BB223F080039AB224
:1006A0007B681A800C37BD465DF8047B704700BF3D
:1006B00080B485B000AF78600B467B800023FB815F
:1006C0007B681B8BFB81FB8923F00803FB81FA8984
:1006D0007B881343FB817B68FA891A831437BD46F4
:1006E0005DF8047B704700BF80B485B000AF7860D0
:1006F0000B467B800023FB817B681B8BFB81FB8986
:1007000023F40063FB817B881B029AB2FB891343AD
:10071000FB817B68FA891A831437BD465DF8047B38
:10072000704700BF80B485B000AF78600B467B8017
:100730000023FB817B689B8BFB81FB8923F00803F3
:10074000FB81FA897B881343FB817B68FA899A8352
:100750001437BD465DF8047B704700BF80B485B098
:1007600000AF78600B467B800023FB817B689B8B0E
:10077000FB81FB8923F40063FB817B881B029AB217
:10078000FB891343FB817B68FA899A831437BD4642
:100790005DF8047B704700BF80B483B000AF786021
:1007A0000B467B807B687A889A860C37BD465DF85D
:1007B000047B704780B483B000AF78600B467B80C9
:1007C0007B687A881A870C37BD465DF8047B7047D2
:1007D00080B483B000AF78600B467B807B687A88FA
:1007E0009A870C37BD465DF8047B704780B483B0B0
:1007F00000AF78600B467B807B687A88A3F8402046
:100800000C37BD465DF8047B704700BF80B483B0F1
:1008100000AF78607B689B8C9BB218460C37BD4656
:100820005DF8047B704700BF80B483B000AF786090
:100830000B467B807B88DB439AB27B681A820C373D
:10084000BD465DF8047B704780B500AF154A154B77
:100850001B6843F0010313601249124B5A68124B94
:1008600013404B600F4A0F4B1B6823F0847323F433
:10087000803313600B4A0B4B1B6823F480231360F7
:10088000084A084B5B6823F4FE035360054B4FF4A2
:100890001F029A6000F00CF8044B4FF000629A605F
:1008A00080BD00BF001002400000FFF800ED00E036
:1008B00080B500AF00F002F880BD00BF80B483B007
:1008C00000AF00237B6000233B603A4A394B1B6832
:1008D00043F480331360374B1B6803F400333B60F1
:1008E0007B6801337B603B68002B03D17B68B3F5E9
:1008F000A06FF0D12F4B1B6803F40033002B02D004
:1009000001233B6001E000233B603B68012B4BD19E
:10091000294A294B1B6843F010031360264A264BD3
:100920001B6823F003031360234A234B1B6843F027
:10093000020313601F4A1F4B5B6853601D4A1D4B27
:100940005B6853601B4A1B4B5B6843F480635360D6
:10095000184A184B5B6823F47C135360154A154BF7
:100960005B6843F4E8135360124A124B1B6843F070
:100970008073136000BF0F4B1B6803F00073002BE4
:10098000F9D00C4A0B4B5B6823F003035360094A10
:10099000084B5B6843F00203536000BF054B5B6884
:1009A00003F00C03082BF9D10C37BD465DF8047B2E
:1009B000704700BF001002400020024080B582B0A6
:1009C00000AF104B7B60104B3B6007E03B681A1D8B
:1009D0003A607A68111D796012681A603B680B4AA8
:1009E0009342F3D30A480B494FF000028842B8BF44
:1009F00040F8042BFADBFFF727FF00F041F9083736
:100A0000BD4680BD641200080000002000000020E8
:100A1000000000201C00002080B400AFFEE700BFF3
:100A200080B489B000AF786039600023FB61002397
:100A30003B610023BB610023FB6000237B6100233B
:100A4000BB603B68DB7803F00F03FB613B68DB783E
:100A500003F01003002B05D03B689B781A46FB6916
:100A60001343FB613B681B88DBB2002B44D07B68DF
:100A70001B687B610023BB6138E0BB69012202FA7D
:100A800003F3FB603B681B881A46FB6813403B611D
:100A90003A69FB689A4226D1BB699B00FB60FB6800
:100AA0000F2202FA03F3BB60BB68DB437A69134091
:100AB0007B61FB68FA6902FA03F37A6913437B618D
:100AC0003B68DB78282B05D1BB6901229A407B6803
:100AD0005A6108E03B68DB78482B04D1BB690122EE
:100AE0009A407B681A61BB690133BB61BB69072B04
:100AF000C3D97B687A691A603B681B88FF2B4AD987
:100B00007B685B687B610023BB613EE0BB690833A7
:100B10001A4601239340FB603B681B881A46FB681A
:100B200013403B613A69FB689A422BD1BB699B0039
:100B3000FB60FB680F2202FA03F3BB60BB68DB4378
:100B40007A6913407B61FB68FA6902FA03F37A69F8
:100B500013437B613B68DB78282B07D1BB690833E3
:100B60001A46012303FA02F27B685A613B68DB787C
:100B7000482B07D1BB6908331A46012303FA02F256
:100B80007B681A61BB690133BB61BB69072BBDD9A7
:100B90007B687A695A602437BD465DF8047B7047EC
:100BA00080B487B000AF78600B46FB7000233B61D8
:100BB0000023FB6000237B610023BB607B68002B6C
:100BC00003DA2E4BDB697B6102E02C4B5B687B61B7
:100BD0007B6803F470231B0CBB607B689BB23B619A
:100BE0007B6803F44013B3F5401F0AD17B6923F0FF
:100BF00070637B61214A214B5B6823F07063536013
:100C000021E07B6803F48013002B0ED0BB68032225
:100C100002FA03F3FB60FB68DB437A6913407B61F4
:100C20007B6943F070637B610DE07B685B0D1B01AA
:100C30001A463B699340DB437A6913407B617B69C9
:100C400043F070637B61FB78002B08D07B685B0D01
:100C50001B011A463B6993407A6913437B617B68A9
:100C6000002B03DA054A7B69D36102E0034A7B6902
:100C700053601C37BD465DF8047B7047000001409F
:100C800080B500AF00F0C6F800F0ECF8584840F22C
:100C9000DC51FFF781FD564840F2DC51FFF78AFD39
:100CA00053484FF47A71FFF793FD514840F2DC51FD
:100CB000FFF79CFD4F4B00221A604F48FFF7A6FD3F
:100CC00003461A464D4B1A604C4B1A684C4B1B6836
:100CD0009A4214D2494B1A68494B1B68D31A03F540
:100CE00043435033B3F5FA6F1AD9464B1B680133AF
:100CF000444A1360414B1B68414A136010E03F4B6C
:100D00001A683F4B1B68D31AB3F5FA6F08D93D4BED
:100D10001B6801333B4A1360384B1B68384A136029
:100D2000384B1B68092B03D900BF00F00DF900E018
:100D3000C3E73148FFF76AFD03461A462F4B1A6096
:100D40002E4B1A682E4B1B689A4229D22B4B1A68DD
:100D50002B4B1B68D31A03F543435033B3F5FA6F9B
:100D600044D9264B1B68264A136000F06DF9264BC8
:100D70001B680133244A1360244B1B680133234A48
:100D80001360224B1B683B2B30D9214B1B6801336E
:100D90001F4A136000F0D8F81C4B00221A60C8E705
:100DA000164B1A68164B1B68D31AB3F5FA6F1DD988
:100DB000124B1B68124A136000F046F9124B1B6875
:100DC0000133114A1360114B1B6801330F4A136042
:100DD0000E4B1B683B2B09D90D4B1B6801330C4A8A
:100DE000136000F0B1F8094B00221A60A1E700BFC0
:100DF000000800401800002000040040000000200F
:100E00000400002014000020100000200800002032
:100E10000C00002080B584B000AF0220012100F05A
:100E200003FA4CF250333B8148F69F43BB800023CA
:100E30007B810023FB803B1D09481946FFF77AF9A7
:100E400007480121FFF7F0FC05480121FFF710FCDE
:100E500003480121FFF7ECFB1037BD4680BD00BF02
:100E60000004004080B588B000AF0420012100F0EC
:100E7000DBF92120012100F0B9F94FF470433B80E8
:100E80001823FB700323BB703B462D481946FFF720
:100E9000C7FD4FF480500121FFF782FE44F6206326
:100EA0003B834723BB8200237B830023FB8207F124
:100EB000140324481946FFF73DF96023BB80012342
:100EC000FB8000237B810023BB813B1D1D4819460D
:100ED000FFF7ACF91B480821FFF7EAFB0123FB8071
:100EE00000237B813B1D17481946FFF72BFA154855
:100EF0000821FFF7F9FB0123FB8000237B813B1DC9
:100F000010481946FFF7A6FA0E480821FFF70AFC19
:100F10000123FB8000237B813B1D0A481946FFF714
:100F20001FFB08480821FFF719FC06480121FFF7BD
:100F30009FFB04480121FFF77BFB2037BD4680BDA6
:100F4000001401400008004080B500AF3B4B1B6817
:100F5000012B72D03A4B1B680A2B6DD801A252F8B4
:100F600023F000BF910F00089D0F0008A90F000893
:100F7000B50F0008C10F0008CD0F0008D90F0008F9
:100F8000E50F0008F10F0008FD0F00080910000828
:100F90002C4840F26C71FFF71BFC4EE0294840F2F0
:100FA0000E61FFF715FC48E026484FF4E161FFF7BA
:100FB0000FFC42E0234840F20E61FFF709FC3CE0E1
:100FC000204840F24C41FFF703FC36E01D4840F258
:100FD0000E61FFF7FDFB30E01A484FF4E161FFF7C7
:100FE000F7FB2AE0174840F20E61FFF7F1FB24E01F
:100FF000144840F24C41FFF7EBFB1EE0114840F271
:101000000E61FFF7E5FB18E00C4B01221A600D485A
:1010100040F2DC51FFF7C0FB0A4840F2DC51FFF719
:10102000C9FB08484FF47A71FFF7D2FB054840F23C
:10103000DC51FFF7DBFB00E000BF80BD18000020A3
:101040000C0000200008004080B500AF644B1B6816
:10105000012B00F0C480634B1B68092B00F2BB809E
:1010600001A252F823F000BF91100008B11000084F
:10107000D1100008F110000811110008311100080A
:10108000511100087111000891110008B1110008F8
:10109000554840F2DC51FFF77FFB534840F2DC51EA
:1010A000FFF788FB504840F2DC51FFF79FFB96E0CA
:1010B0004D4840F26C71FFF76FFB4B4840F26C718A
:1010C000FFF778FB484840F26C71FFF78FFB86E032
:1010D000454840F24C41FFF75FFB434840F24C412A
:1010E000FFF768FB404840F24C41FFF77FFB76E09A
:1010F0003D484FF4AF61FFF74FFB3B484FF4AF6102
:10110000FFF758FB38484FF4AF61FFF76FFB66E01D
:1011100035484FF4C861FFF73FFB33484FF4C861CF
:10112000FFF748FB30484FF4C861FFF75FFB56E01C
:101130002D4840F2DC51FFF72FFB2B4840F2DC51E9
:10114000FFF738FB284840F2DC51FFF74FFB46E041
:1011500025484FF49661FFF71FFB23484FF4966133
:10116000FFF728FB20484FF49661FFF73FFB36E07E
:101170001D484FF4E161FFF70FFB1B484FF4E1619D
:10118000FFF718FB18484FF4E161FFF72FFB26E04B
:1011900015484FF4C861FFF7FFFA13484FF4C861D0
:1011A000FFF708FB10484FF4C861FFF71FFB16E07C
:1011B0000D484FF4AF61FFF7EFFA0B484FF4AF6102
:1011C000FFF7F8FA08484FF4AF61FFF70FFB054B44
:1011D00000221A6003E0034B00221A6000BF80BDAA
:1011E00018000020100000200008004080B483B0E8
:1011F00000AF78600B46FB70FB78002B06D00949E6
:10120000084B9A697B6813438B6106E00549054BDF
:101210009A697B68DB4313408B610C37BD465DF8F0
:10122000047B70470010024080B483B000AF786048
:101230000B46FB70FB78002B06D00949084BDA6996
:101240007B681343CB6106E00549054BDA697B688F
:10125000DB431340CB610C37BD465DF8047B704720
:041260000010024038
:0400000508000000EF
:00000001FF
