:020000040800F2
:10D0000020040020BDD9000819DA000819DA000848
:10D0100019DA000819DA000819DA0008000000001F
:10D0200000000000000000000000000019DA000805
:10D0300019DA00080000000019DA000819DA0008FF
:10D0400019DA000819DA000819DA000819DA0008F4
:10D0500019DA000819DA000819DA000819DA0008E4
:10D0600019DA000819DA000819DA000819DA0008D4
:10D0700019DA000819DA000819DA000819DA0008C4
:10D0800019DA000819DA000819DA000819DA0008B4
:10D0900019DA000819DA000819DA000819DA0008A4
:10D0A00019DA000819DA000819DA000819DA000894
:10D0B00019DA000819DA000819DA000819DA000884
:10D0C00019DA000819DA000819DA000819DA000874
:10D0D00019DA000819DA000819DA000819DA000864
:10D0E00019DA000819DA000819DA000819DA000854
:10D0F00019DA000819DA000819DA000819DA000844
:10D1000019DA000819DA000819DA000819DA000833
:10D1100019DA000819DA000819DA000819DA000823
:10D1200019DA000819DA000819DA000819DA000813
:10D130005FF808F180B485B000AF786039600023F3
:10D14000FB817B681B88FB817B682E4A934213D04E
:10D150007B682D4A93420FD07B68B3F1804F0BD090
:10D160007B682A4A934207D07B68294A934203D0BE
:10D170007B68284A934208D1FB8923F07003FB8126
:10D180003B685A88FB891343FB817B68224A9342A0
:10D190000CD07B68214A934208D0FB8923F440736A
:10D1A000FB813B68DA88FB891343FB817B68FA8942
:10D1B0001A803B689A887B689A853B681A887B68E6
:10D1C0001A857B680F4A93420FD07B680E4A9342C0
:10D1D0000BD07B68124A934207D07B68114A934276
:10D1E00003D07B68104A934204D13B681B7A9AB201
:10D1F0007B681A867B6801229A821437BD465DF8E7
:10D20000047B7047002C01400034014000040040C2
:10D2100000080040000C00400010004000140040D6
:10D2200000400140004401400048014080B485B006
:10D2300000AF7860396000237B810023FB810023ED
:10D24000BB817B681B8C9BB223F001039AB27B6885
:10D250001A847B681B8CFB817B689B88BB817B6805
:10D260001B8B7B817B8923F070037B817B8923F07F
:10D2700003037B813B681A887B8913437B81FB898D
:10D2800023F00203FB813B681A89FB891343FB816E
:10D290003B685A88FB891343FB817B68244A93428D
:10D2A0000FD07B68234A93420BD07B68224A93427B
:10D2B00007D07B68214A934203D07B68204A93427F
:10D2C00023D1FB8923F00803FB813B685A89FB8942
:10D2D0001343FB81FB8923F00403FB813B689A889D
:10D2E000FB891343FB81BB8923F48073BB81BB891A
:10D2F00023F40073BB813B689A89BB891343BB81CC
:10D300003B68DA89BB891343BB817B68BA899A8001
:10D310007B687A891A833B68DA887B689A867B689F
:10D32000FA891A841437BD465DF8047B704700BF44
:10D33000002C014000340140004001400044014005
:10D340000048014080B485B000AF786039600023A8
:10D350007B810023FB810023BB817B681B8C9BB2FC
:10D3600023F010039AB27B681A847B681B8CFB81C4
:10D370007B689B88BB817B681B8B7B817B8923F4CB
:10D38000E0437B817B8923F440737B813B681B886E
:10D390001B029AB27B8913437B81FB8923F0200314
:10D3A000FB813B681B891B019AB2FB891343FB81FC
:10D3B0003B685B881B019AB2FB891343FB817B6846
:10D3C000224A934203D07B68214A93422BD1FB89A6
:10D3D00023F08003FB813B685B891B019AB2FB89C8
:10D3E0001343FB81FB8923F04003FB813B689B884F
:10D3F0001B019AB2FB891343FB81BB8923F4806331
:10D40000BB81BB8923F40063BB813B689B899B0084
:10D410009AB2BB891343BB813B68DB899B009AB2FC
:10D42000BB891343BB817B68BA899A807B687A8900
:10D430001A833B68DA887B681A877B68FA891A84C2
:10D440001437BD465DF8047B704700BF002C0140D7
:10D450000034014080B485B000AF786039600023AB
:10D460007B810023FB810023BB817B681B8C9BB2EB
:10D4700023F480739AB27B681A847B681B8CFB81CF
:10D480007B689B88BB817B689B8B7B817B8923F03E
:10D4900070037B817B8923F003037B813B681A88BF
:10D4A0007B8913437B81FB8923F40073FB813B68F9
:10D4B0001B891B029AB2FB891343FB813B685B8883
:10D4C0001B029AB2FB891343FB817B68224A934279
:10D4D00003D07B68214A93422BD1FB8923F400635C
:10D4E000FB813B685B891B029AB2FB891343FB817A
:10D4F000FB8923F48063FB813B689B881B029AB203
:10D50000FB891343FB81BB8923F48053BB81BB8917
:10D5100023F40053BB813B689B891B019AB2BB89F2
:10D520001343BB813B68DB891B019AB2BB89134360
:10D53000BB817B68BA899A807B687A899A833B68C9
:10D54000DA887B689A877B68FA891A841437BD4623
:10D550005DF8047B704700BF002C0140003401409F
:10D5600080B485B000AF786039600023BB810023B0
:10D570007B810023FB817B681B8C9BB223F480534F
:10D580009AB27B681A847B681B8C7B817B689B8842
:10D59000FB817B689B8BBB81BB8923F4E043BB8110
:10D5A000BB8923F44073BB813B681B881B029AB282
:10D5B000BB891343BB817B8923F400537B813B6888
:10D5C0001B891B039AB27B8913437B813B685B8871
:10D5D0001B039AB27B8913437B817B68124A934277
:10D5E00003D07B68114A93420AD1FB8923F480431C
:10D5F000FB813B689B899B019AB2FB891343FB81AA
:10D600007B68FA899A807B68BA899A833B68DA8852
:10D610007B68A3F840207B687A891A841437BD465A
:10D620005DF8047B704700BF002C014000340140CE
:10D6300080B483B000AF78600B46FB70FB78002BA2
:10D6400008D07B681B889BB243F001039AB27B68C9
:10D650001A8007E07B681B889BB223F001039AB213
:10D660007B681A800C37BD465DF8047B704700BFAD
:10D6700080B483B000AF78600B46FB70FB78002B62
:10D6800008D07B681B889BB243F080039AB27B680A
:10D690001A8007E07B681B889BB223F080039AB254
:10D6A0007B681A800C37BD465DF8047B704700BF6D
:10D6B00080B485B000AF78600B467B800023FB818F
:10D6C0007B681B8BFB81FB8923F00803FB81FA89B4
:10D6D0007B881343FB817B68FA891A831437BD4624
:10D6E0005DF8047B704700BF80B485B000AF786000
:10D6F0000B467B800023FB817B681B8BFB81FB89B6
:10D7000023F40063FB817B881B029AB2FB891343DD
:10D71000FB817B68FA891A831437BD465DF8047B68
:10D72000704700BF80B485B000AF78600B467B8047
:10D730000023FB817B689B8BFB81FB8923F0080323
:10D74000FB81FA897B881343FB817B68FA899A8382
:10D750001437BD465DF8047B704700BF80B485B0C8
:10D7600000AF78600B467B800023FB817B689B8B3E
:10D77000FB81FB8923F40063FB817B881B029AB247
:10D78000FB891343FB817B68FA899A831437BD4672
:10D790005DF8047B704700BF80B483B000AF786051
:10D7A0000B467B807B687A889A860C37BD465DF88D
:10D7B000047B704780B483B000AF78600B467B80F9
:10D7C0007B687A881A870C37BD465DF8047B704702
:10D7D00080B483B000AF78600B467B807B687A882A
:10D7E0009A870C37BD465DF8047B704780B483B0E0
:10D7F00000AF78600B467B807B687A88A3F8402076
:10D800000C37BD465DF8047B704700BF80B483B021
:10D8100000AF78607B689B8C9BB218460C37BD4686
:10D820005DF8047B704700BF80B483B000AF7860C0
:10D830000B467B807B88DB439AB27B681A820C376D
:10D84000BD465DF8047B704780B500AF144A144BA9
:10D850001B6843F0010313601149114B5A68114BC7
:10D8600013404B600E4A0E4B1B6823F0847323F465
:10D87000803313600A4A0A4B1B6823F48023136029
:10D88000074A074B5B6823F4FE035360044B4FF4D5
:10D890001F029A6000F00CF8034B044A9A6080BDA6
:10D8A000001002400000FFF800ED00E000D000088A
:10D8B00080B500AF00F002F880BD00BF80B483B037
:10D8C00000AF00237B6000233B603A4A394B1B6862
:10D8D00043F480331360374B1B6803F400333B6021
:10D8E0007B6801337B603B68002B03D17B68B3F519
:10D8F000A06FF0D12F4B1B6803F40033002B02D034
:10D9000001233B6001E000233B603B68012B4BD1CE
:10D91000294A294B1B6843F010031360264A264B03
:10D920001B6823F003031360234A234B1B6843F057
:10D93000020313601F4A1F4B5B6853601D4A1D4B57
:10D940005B6853601B4A1B4B5B6843F48063536006
:10D95000184A184B5B6823F47C135360154A154B27
:10D960005B6843F4E8135360124A124B1B6843F0A0
:10D970008073136000BF0F4B1B6803F00073002B14
:10D98000F9D00C4A0B4B5B6823F003035360094A40
:10D99000084B5B6843F00203536000BF054B5B68B4
:10D9A00003F00C03082BF9D10C37BD465DF8047B5E
:10D9B000704700BF001002400020024080B582B0D6
:10D9C00000AF104B7B60104B3B6007E03B681A1DBB
:10D9D0003A607A68111D796012681A603B680B4AD8
:10D9E0009342F3D30A480B494FF000028842B8BF74
:10D9F00040F8042BFADBFFF727FF00F041F9083766
:10DA0000BD4680BDD0E200080000002000000020DC
:10DA1000000000201C00002080B400AFFEE700BF23
:10DA200080B489B000AF786039600023FB610023C7
:10DA30003B610023BB610023FB6000237B6100236B
:10DA4000BB603B68DB7803F00F03FB613B68DB786E
:10DA500003F01003002B05D03B689B781A46FB6946
:10DA60001343FB613B681B88DBB2002B44D07B680F
:10DA70001B687B610023BB6138E0BB69012202FAAD
:10DA800003F3FB603B681B881A46FB6813403B614D
:10DA90003A69FB689A4226D1BB699B00FB60FB6830
:10DAA0000F2202FA03F3BB60BB68DB437A691340C1
:10DAB0007B61FB68FA6902FA03F37A6913437B61BD
:10DAC0003B68DB78282B05D1BB6901229A407B6833
:10DAD0005A6108E03B68DB78482B04D1BB6901221E
:10DAE0009A407B681A61BB690133BB61BB69072B34
:10DAF000C3D97B687A691A603B681B88FF2B4AD9B7
:10DB00007B685B687B610023BB613EE0BB690833D7
:10DB10001A4601239340FB603B681B881A46FB684A
:10DB200013403B613A69FB689A422BD1BB699B0069
:10DB3000FB60FB680F2202FA03F3BB60BB68DB43A8
:10DB40007A6913407B61FB68FA6902FA03F37A6928
:10DB500013437B613B68DB78282B07D1BB69083313
:10DB60001A46012303FA02F27B685A613B68DB78AC
:10DB7000482B07D1BB6908331A46012303FA02F286
:10DB80007B681A61BB690133BB61BB69072BBDD9D7
:10DB90007B687A695A602437BD465DF8047B70471C
:10DBA00080B487B000AF78600B46FB7000233B6108
:10DBB0000023FB6000237B610023BB607B68002B9C
:10DBC00003DA2E4BDB697B6102E02C4B5B687B61E7
:10DBD0007B6803F470231B0CBB607B689BB23B61CA
:10DBE0007B6803F44013B3F5401F0AD17B6923F02F
:10DBF00070637B61214A214B5B6823F07063536043
:10DC000021E07B6803F48013002B0ED0BB68032255
:10DC100002FA03F3FB60FB68DB437A6913407B6124
:10DC20007B6943F070637B610DE07B685B0D1B01DA
:10DC30001A463B699340DB437A6913407B617B69F9
:10DC400043F070637B61FB78002B08D07B685B0D31
:10DC50001B011A463B6993407A6913437B617B68D9
:10DC6000002B03DA054A7B69D36102E0034A7B6932
:10DC700053601C37BD465DF8047B704700000140CF
:10DC800080B582B000AF00F0DBF800F001F90820A9
:10DC9000012100F0E1FA1023FB710323BB71202363
:10DCA000BB803B1D5D481946FFF7BAFE5C4840F259
:10DCB000DC51FFF771FD5A4840F2DC51FFF77AFD65
:10DCC00057484FF47A71FFF783FD554840F2DC5115
:10DCD000FFF78CFD534B00221A605348FFF796FD67
:10DCE00003461A46514B1A60504B1A68504B1B683A
:10DCF0009A4214D24D4B1A684D4B1B68D31A03F548
:10DD000043435033B3F5FA6F1AD94A4B1B680133BA
:10DD1000484A1360454B1B68454A136010E0434B6B
:10DD20001A68434B1B68D31AB3F5FA6F08D9414BF5
:10DD30001B6801333F4A13603C4B1B683C4A13602D
:10DD40003C4B1B68092B08D900BF354840F2C44141
:10DD5000FFF73EFD00F00EF900E0BEE73248FFF7A6
:10DD600055FD03461A46314B1A60304B1A68304B4A
:10DD70001B689A422AD22D4B1A682D4B1B68D31A66
:10DD800003F543435033B3F5FA6F46D9234A234B87
:10DD9000DB6883F02003D360244B1B68244A1360A4
:10DDA00000F02CF9244B1B680133234A1360224BEB
:10DDB0001B683B2B31D9214B1B6801331F4A136071
:10DDC00000F0D8F81C4B00221A60C7E7174B1A68FE
:10DDD000174B1B68D31AB3F5FA6F1ED90F4A0F4BB6
:10DDE000DB6883F02003D360104B1B68104A13607C
:10DDF00000F004F9104B1B6801330F4A13600E4BFF
:10DE00001B683B2B09D90D4B1B6801330B4A136070
:10DE100000F0B0F8084B00221A609FE7000C0140A8
:10DE2000000800401800002000040040000000200E
:10DE30000400002014000020080000200C00002036
:10DE400080B584B000AF0220012100F023FA4CF22B
:10DE500050333B8148F69F43BB8000237B810023E6
:10DE6000FB803B1D09481946FFF764F9074801216B
:10DE7000FFF7DAFC05480121FFF7FAFB034801210F
:10DE8000FFF7D6FB1037BD4680BD00BF0004004041
:10DE900080B588B000AF0420012100F0FBF92120FB
:10DEA000012100F0D9F94FF470433B801823FB7037
:10DEB0000323BB703B462D481946FFF7B1FD4FF4D5
:10DEC00080500121FFF76CFE44F620633B8347231B
:10DED000BB8200237B830023FB8207F114032448C9
:10DEE0001946FFF727F96023BB800123FB8000233D
:10DEF0007B810023BB813B1D1D481946FFF796F926
:10DF00001B480821FFF7D4FB0123FB8000237B8102
:10DF10003B1D17481946FFF715FA15480821FFF76A
:10DF2000E3FB0123FB8000237B813B1D1048194646
:10DF3000FFF790FA0E480821FFF7F4FB0123FB805E
:10DF400000237B813B1D0A481946FFF709FB08485F
:10DF50000821FFF703FC06480121FFF789FB04486D
:10DF60000121FFF765FB2037BD4680BD001401404D
:10DF70000008004080B500AF1D4B1B68012B36D058
:10DF80001C4B1B680A2B31D801A252F823F000BFAA
:10DF9000EDDF0008EDDF0008EDDF0008EDDF000831
:10DFA000EDDF0008EDDF0008EDDF0008EDDF000821
:10DFB000EDDF0008EDDF0008BDDF00080C4B01229B
:10DFC0001A600D4840F2DC51FFF7E6FB0A4840F2C8
:10DFD000DC51FFF7EFFB08484FF47A71FFF7F8FBCD
:10DFE000054840F2DC51FFF701FC00E000BF80BDB6
:10DFF000180000200C0000200008004080B500AF91
:10E00000924B1B68012B00F01F81914B1B680B2B5F
:10E0100000F2168101A252F823F000BF4DE0000883
:10E0200077E00008A1E00008CBE00008F5E0000878
:10E030001FE1000849E1000873E100089DE10008C4
:10E04000C7E10008F1E100081BE20008814840F246
:10E05000DC51FFF7A1FB7F4840F2DC51FFF7AAFB40
:10E060007C4840F2DC51FFF7C1FB794B1B68013360
:10E07000774A1360E8E0774840F21451FFF78CFBD1
:10E08000744840F21451FFF795FB724840F2145166
:10E09000FFF7ACFB6E4B1B6801336D4A1360D3E096
:10E0A0006C4840F2DC51FFF777FB6A4840F2DC51E4
:10E0B000FFF780FB674840F2DC51FFF797FB644BAA
:10E0C0001B680133624A1360BEE0624840F2A461FB
:10E0D000FFF762FB5F4840F2A461FFF76BFB5D480E
:10E0E00040F2A461FFF782FB594B1B680133584A89
:10E0F0001360A9E0574840F2DC51FFF74DFB55484B
:10E1000040F2DC51FFF756FB524840F2DC51FFF77A
:10E110006DFB4F4B1B6801334D4A136094E04D4833
:10E1200040F21451FFF738FB4A4840F21451FFF710
:10E1300041FB484840F21451FFF758FB444B1B6821
:10E140000133434A13607FE0424840F2DC51FFF75D
:10E1500023FB404840F2DC51FFF72CFB3D4840F2E6
:10E16000DC51FFF743FB3A4B1B680133384A13601D
:10E170006AE0384840F2A461FFF70EFB354840F2F0
:10E18000A461FFF717FB334840F2A461FFF72EFBB1
:10E190002F4B1B6801332E4A136055E02D4840F287
:10E1A000DC51FFF7F9FA2B4840F2DC51FFF702FB94
:10E1B000284840F2DC51FFF719FB254B1B6801335F
:10E1C000234A136040E0234840F21451FFF7E4FA79
:10E1D000204840F21451FFF7EDFA1E4840F2145166
:10E1E000FFF704FB1A4B1B680133194A13602BE03D
:10E1F000184840F2DC51FFF7CFFA164840F2DC51E4
:10E20000FFF7D8FA134840F2DC51FFF7EFFA104B52
:10E210001B6801330E4A136016E00E4840F2A461F9
:10E22000FFF7BAFA0B4840F2A461FFF7C3FA0948B6
:10E2300040F2A461FFF7DAFA054B00221A6003E00E
:10E24000034B00221A6000BF80BD00BF18000020F1
:10E25000100000200008004080B483B000AF786058
:10E260000B46FB70FB78002B06D00949084B9A69D6
:10E270007B6813438B6106E00549054B9A697B680F
:10E28000DB4313408B610C37BD465DF8047B704760
:10E290000010024080B483B000AF78600B46FB7082
:10E2A000FB78002B06D00949084BDA697B681343D9
:10E2B000CB6106E00549054BDA697B68DB43134017
:10E2C000CB610C37BD465DF8047B704700100240FF
:040000050800D0001F
:00000001FF
