:020000040800F2
:10000000180400206D070008C9070008C907000888
:10001000C9070008C9070008C90700080000000058
:10002000000000000000000000000000C9070008F8
:10003000C907000800000000C9070008C907000838
:10004000C9070008C9070008C9070008C907000850
:10005000C9070008C9070008C9070008C907000840
:10006000C9070008C9070008C9070008C907000830
:10007000C9070008C9070008C9070008C907000820
:10008000C9070008C9070008C9070008C907000810
:10009000C9070008C9070008C9070008C907000800
:1000A000C9070008C9070008C9070008C9070008F0
:1000B000C9070008C9070008C9070008C9070008E0
:1000C000C9070008C9070008C9070008C9070008D0
:1000D000C9070008C9070008C9070008C9070008C0
:1000E000C9070008C9070008C9070008C9070008B0
:1000F000C9070008C9070008C9070008C9070008A0
:10010000C9070008C9070008C9070008C90700088F
:10011000C9070008C9070008C9070008C90700087F
:10012000C9070008C9070008C9070008C90700086F
:100130005FF808F180B485B000AF786039600023C3
:10014000FB817B681B88FB817B682E4A934213D01E
:100150007B682D4A93420FD07B68B3F1804F0BD060
:100160007B682A4A934207D07B68294A934203D08E
:100170007B68284A934208D1FB8923F07003FB81F6
:100180003B685A88FB891343FB817B68224A934270
:100190000CD07B68214A934208D0FB8923F440733A
:1001A000FB813B68DA88FB891343FB817B68FA8912
:1001B0001A803B689A887B689A853B681A887B68B6
:1001C0001A857B680F4A93420FD07B680E4A934290
:1001D0000BD07B68124A934207D07B68114A934246
:1001E00003D07B68104A934204D13B681B7A9AB2D1
:1001F0007B681A867B6801229A821437BD465DF8B7
:10020000047B7047002C0140003401400004004092
:1002100000080040000C00400010004000140040A6
:1002200000400140004401400048014080B485B0D6
:1002300000AF7860396000237B810023FB810023BD
:10024000BB817B681B8C9BB223F001039AB27B6855
:100250001A847B681B8CFB817B689B88BB817B68D5
:100260001B8B7B817B8923F070037B817B8923F04F
:1002700003037B813B681A887B8913437B81FB895D
:1002800023F00203FB813B681A89FB891343FB813E
:100290003B685A88FB891343FB817B68244A93425D
:1002A0000FD07B68234A93420BD07B68224A93424B
:1002B00007D07B68214A934203D07B68204A93424F
:1002C00023D1FB8923F00803FB813B685A89FB8912
:1002D0001343FB81FB8923F00403FB813B689A886D
:1002E000FB891343FB81BB8923F48073BB81BB89EA
:1002F00023F40073BB813B689A89BB891343BB819C
:100300003B68DA89BB891343BB817B68BA899A80D1
:100310007B687A891A833B68DA887B689A867B686F
:10032000FA891A841437BD465DF8047B704700BF14
:10033000002C0140003401400040014000440140D5
:100340000048014080B485B000AF78603960002378
:100350007B810023FB810023BB817B681B8C9BB2CC
:1003600023F010039AB27B681A847B681B8CFB8194
:100370007B689B88BB817B681B8B7B817B8923F49B
:10038000E0437B817B8923F440737B813B681B883E
:100390001B029AB27B8913437B81FB8923F02003E4
:1003A000FB813B681B891B019AB2FB891343FB81CC
:1003B0003B685B881B019AB2FB891343FB817B6816
:1003C000224A934203D07B68214A93422BD1FB8976
:1003D00023F08003FB813B685B891B019AB2FB8998
:1003E0001343FB81FB8923F04003FB813B689B881F
:1003F0001B019AB2FB891343FB81BB8923F4806301
:10040000BB81BB8923F40063BB813B689B899B0054
:100410009AB2BB891343BB813B68DB899B009AB2CC
:10042000BB891343BB817B68BA899A807B687A89D0
:100430001A833B68DA887B681A877B68FA891A8492
:100440001437BD465DF8047B704700BF002C0140A7
:100450000034014080B483B000AF78600B46FB707D
:10046000FB78002B08D07B681B889BB243F001030C
:100470009AB27B681A8007E07B681B889BB223F0E6
:1004800001039AB27B681A800C37BD465DF8047B85
:10049000704700BF80B483B000AF78600B46FB703C
:1004A000FB78002B08D07B681B889BB243F080034D
:1004B0009AB27B681A8007E07B681B889BB223F0A6
:1004C00080039AB27B681A800C37BD465DF8047BC6
:1004D000704700BF80B485B000AF78600B467B806A
:1004E0000023FB817B681B8BFB81FB8923F00803C6
:1004F000FB81FA897B881343FB817B68FA891A8325
:100500001437BD465DF8047B704700BF80B485B0EA
:1005100000AF78600B467B800023FB817B681B8BE0
:10052000FB81FB8923F40063FB817B881B029AB269
:10053000FB891343FB817B68FA891A831437BD4614
:100540005DF8047B704700BF80B483B000AF786073
:100550000B467B807B687A889A860C37BD465DF8AF
:10056000047B704780B483B000AF78600B467B801B
:100570007B687A881A870C37BD465DF8047B704724
:1005800080B483B000AF78600B467B807B687A884C
:100590009A870C37BD465DF8047B704780B483B002
:1005A00000AF78600B467B807B687A88A3F8402098
:1005B0000C37BD465DF8047B704700BF80B483B044
:1005C00000AF78607B689B8C9BB218460C37BD46A9
:1005D0005DF8047B704700BF80B483B000AF7860E3
:1005E0000B467B807B88DB439AB27B681A820C3790
:1005F000BD465DF8047B704780B500AF154A154BCA
:100600001B6843F0010313601249124B5A68124BE6
:1006100013404B600F4A0F4B1B6823F0847323F485
:10062000803313600B4A0B4B1B6823F48023136049
:10063000084A084B5B6823F4FE035360054B4FF4F4
:100640001F029A6000F00CF8044B4FF000629A60B1
:1006500080BD00BF001002400000FFF800ED00E088
:1006600080B500AF00F002F880BD00BF80B483B059
:1006700000AF00237B6000233B603A4A394B1B6884
:1006800043F480331360374B1B6803F400333B6043
:100690007B6801337B603B68002B03D17B68B3F53B
:1006A000A06FF0D12F4B1B6803F40033002B02D056
:1006B00001233B6001E000233B603B68012B4BD1F1
:1006C000294A294B1B6843F010031360264A264B26
:1006D0001B6823F003031360234A234B1B6843F07A
:1006E000020313601F4A1F4B5B6853601D4A1D4B7A
:1006F0005B6853601B4A1B4B5B6843F48063536029
:10070000184A184B5B6823F47C135360154A154B49
:100710005B6843F4E8135360124A124B1B6843F0C2
:100720008073136000BF0F4B1B6803F00073002B36
:10073000F9D00C4A0B4B5B6823F003035360094A62
:10074000084B5B6843F00203536000BF054B5B68D6
:1007500003F00C03082BF9D10C37BD465DF8047B80
:10076000704700BF001002400020024080B582B0F8
:1007700000AF104B7B60104B3B6007E03B681A1DDD
:100780003A607A68111D796012681A603B680B4AFA
:100790009342F3D30A480B494FF000028842B8BF96
:1007A00040F8042BFADBFFF727FF00F0D1F80837F9
:1007B000BD4680BD240E000800000020000000207F
:1007C000000000201400002080B400AFFEE700BF4E
:1007D00080B489B000AF786039600023FB610023EA
:1007E0003B610023BB610023FB6000237B6100238E
:1007F000BB603B68DB7803F00F03FB613B68DB7891
:1008000003F01003002B05D03B689B781A46FB6968
:100810001343FB613B681B88DBB2002B44D07B6831
:100820001B687B610023BB6138E0BB69012202FACF
:1008300003F3FB603B681B881A46FB6813403B616F
:100840003A69FB689A4226D1BB699B00FB60FB6852
:100850000F2202FA03F3BB60BB68DB437A691340E3
:100860007B61FB68FA6902FA03F37A6913437B61DF
:100870003B68DB78282B05D1BB6901229A407B6855
:100880005A6108E03B68DB78482B04D1BB69012240
:100890009A407B681A61BB690133BB61BB69072B56
:1008A000C3D97B687A691A603B681B88FF2B4AD9D9
:1008B0007B685B687B610023BB613EE0BB690833FA
:1008C0001A4601239340FB603B681B881A46FB686D
:1008D00013403B613A69FB689A422BD1BB699B008C
:1008E000FB60FB680F2202FA03F3BB60BB68DB43CB
:1008F0007A6913407B61FB68FA6902FA03F37A694B
:1009000013437B613B68DB78282B07D1BB69083335
:100910001A46012303FA02F27B685A613B68DB78CE
:10092000482B07D1BB6908331A46012303FA02F2A8
:100930007B681A61BB690133BB61BB69072BBDD9F9
:100940007B687A695A602437BD465DF8047B70473E
:1009500080B500AF00F07AF800F0A0F8344840F21B
:10096000DC51FFF7F1FD324840F2DC51FFF7FAFDB0
:100970002F484FF47A71FFF703FE2D4840F2DC5107
:10098000FFF70CFE2B48FFF719FE03461A462A4BC9
:100990001A60294B1A68294B1B689A4210D2264BC1
:1009A0001A68264B1B68D31A03F54343503347F2AA
:1009B0003052934204D9204B1B68204A136000E058
:1009C000E0E71C48FFF7FAFD03461A461A4B1A6087
:1009D000194B1A68194B1B689A4228D2164B1A6891
:1009E000164B1B68D31A03F543435033B3F5FA6F24
:1009F0001DD9114B1B68114A136000F00DF9104B03
:100A00001B6801330E4A13600E4B1B6801330D4AFD
:100A100013600C4B1B683B2B09D900F08FF8094B76
:100A200000221A60084B1B680133074A1360C8E7AD
:100A300000040040000800400000002004000020E6
:100A400010000020080000200C00002080B584B0B9
:100A500000AF0420012100F0C7F94CF250333B8174
:100A600048F69F43BB8000237B810023FB803B1D16
:100A700009481946FFF75EFB07480121FFF7ACFD67
:100A800005480121FFF706FD03480121FFF7E2FCBD
:100A90001037BD4680BD00BF0008004080B588B05B
:100AA00000AF0220012100F09FF90520012100F094
:100AB0007DF9C0233B801823FB700323BB703B46AA
:100AC0001C481946FFF784FE44F620633B83472306
:100AD000BB8200237B830023FB8207F114031648AB
:100AE0001946FFF727FB6023BB800123FB8040F200
:100AF000DC537B810023BB813B1D0F481946FFF768
:100B000095FB0D480821FFF7E5FC3B1D0A481946F7
:100B1000FFF718FC08480821FFF7F8FC06480121F8
:100B2000FFF7B8FC04480121FFF794FC2037BD46CD
:100B300080BD00BF000801400004004080B500AF48
:100B4000334B1B680A2B5ED801A252F823F000BF7A
:100B50007D0B0008890B0008950B0008A10B00080D
:100B6000AD0B0008B90B0008C50B0008D10B00083D
:100B7000DD0B0008E90B0008F50B0008254840F2E2
:100B80006C71FFF7FDFC42E0224840F20E61FFF776
:100B9000F7FC3CE01F484FF4E161FFF7F1FC36E061
:100BA0001C4840F20E61FFF7EBFC30E0194840F2C0
:100BB0004C41FFF7E5FC2AE0164840F20E61FFF7D2
:100BC000DFFC24E013484FF4E161FFF7D9FC1EE09D
:100BD000104840F20E61FFF7D3FC18E00D4840F2D8
:100BE0004C41FFF7CDFC12E00A4840F20E61FFF7DE
:100BF000C7FC0CE0074840F24C41FFF7C1FC044B36
:100C000000221A6003E0024B00221A6000BF80BD80
:100C10000C0000200004004080B500AF614B1B6851
:100C2000092B00F2BA8001A252F823F0550C0008FB
:100C3000750C0008950C0008B50C0008D50C0008D0
:100C4000F50C0008150D0008350D0008550D0008BD
:100C5000750D0008544840F2DC51FFF775FC52480E
:100C600040F2DC51FFF77EFC4F4840F2DC51FFF7C9
:100C700095FC96E04C4840F26C71FFF765FC4A48E1
:100C800040F26C71FFF76EFC474840F26C71FFF761
:100C900085FC86E0444840F24C41FFF755FC424851
:100CA00040F24C41FFF75EFC3F4840F24C41FFF7F9
:100CB00075FC76E03C484FF4AF61FFF745FC3A48DD
:100CC0004FF4AF61FFF74EFC37484FF4AF61FFF7C9
:100CD00065FC66E034484FF4C861FFF735FC3248E4
:100CE0004FF4C861FFF73EFC2F484FF4C861FFF78F
:100CF00055FC56E02C4840F2DC51FFF725FC2A4811
:100D000040F2DC51FFF72EFC274840F2DC51FFF7A0
:100D100045FC46E024484FF49661FFF715FC224855
:100D20004FF49661FFF71EFC1F484FF49661FFF7E2
:100D300035FC36E01C484FF4E161FFF705FC1A482A
:100D40004FF4E161FFF70EFC17484FF4E161FFF744
:100D500025FC26E014484FF4C861FFF7F5FB124864
:100D60004FF4C861FFF7FEFB0F484FF4C861FFF76F
:100D700015FC16E00C484FF4AF61FFF7E5FB0A489D
:100D80004FF4AF61FFF7EEFB07484FF4AF61FFF799
:100D900005FC044B00221A6003E0024B00221A609B
:100DA00000BF80BD100000200004004080B483B06C
:100DB00000AF78600B46FB70FB78002B06D009492A
:100DC000084B9A697B6813438B6106E00549054B24
:100DD0009A697B68DB4313408B610C37BD465DF835
:100DE000047B70470010024080B483B000AF78608D
:100DF0000B46FB70FB78002B06D00949084BDA69DB
:100E00007B681343CB6106E00549054BDA697B68D3
:100E1000DB431340CB610C37BD465DF8047B704764
:040E2000001002407C
:0400000508000000EF
:00000001FF
